{
  "_format": "hh-sol-artifact-1",
  "contractName": "devUSDC",
  "sourceName": "contracts/ERC20.sol",
  "abi": [
    {
      "inputs": [],
      "stateMutability": "nonpayable",
      "type": "constructor"
    },
    {
      "inputs": [],
      "name": "ERC20_NotMinter",
      "type": "error"
    },
    {
      "anonymous": false,
      "inputs": [
        {
          "indexed": true,
          "internalType": "address",
          "name": "owner",
          "type": "address"
        },
        {
          "indexed": true,
          "internalType": "address",
          "name": "spender",
          "type": "address"
        },
        {
          "indexed": false,
          "internalType": "uint256",
          "name": "value",
          "type": "uint256"
        }
      ],
      "name": "Approval",
      "type": "event"
    },
    {
      "anonymous": false,
      "inputs": [
        {
          "indexed": true,
          "internalType": "address",
          "name": "previousOwner",
          "type": "address"
        },
        {
          "indexed": true,
          "internalType": "address",
          "name": "newOwner",
          "type": "address"
        }
      ],
      "name": "OwnershipTransferred",
      "type": "event"
    },
    {
      "anonymous": false,
      "inputs": [
        {
          "indexed": true,
          "internalType": "address",
          "name": "from",
          "type": "address"
        },
        {
          "indexed": true,
          "internalType": "address",
          "name": "to",
          "type": "address"
        },
        {
          "indexed": false,
          "internalType": "uint256",
          "name": "value",
          "type": "uint256"
        }
      ],
      "name": "Transfer",
      "type": "event"
    },
    {
      "inputs": [
        {
          "internalType": "address",
          "name": "minter",
          "type": "address"
        }
      ],
      "name": "addMinter",
      "outputs": [],
      "stateMutability": "nonpayable",
      "type": "function"
    },
    {
      "inputs": [
        {
          "internalType": "address",
          "name": "owner",
          "type": "address"
        },
        {
          "internalType": "address",
          "name": "spender",
          "type": "address"
        }
      ],
      "name": "allowance",
      "outputs": [
        {
          "internalType": "uint256",
          "name": "",
          "type": "uint256"
        }
      ],
      "stateMutability": "view",
      "type": "function"
    },
    {
      "inputs": [
        {
          "internalType": "address",
          "name": "spender",
          "type": "address"
        },
        {
          "internalType": "uint256",
          "name": "amount",
          "type": "uint256"
        }
      ],
      "name": "approve",
      "outputs": [
        {
          "internalType": "bool",
          "name": "",
          "type": "bool"
        }
      ],
      "stateMutability": "nonpayable",
      "type": "function"
    },
    {
      "inputs": [
        {
          "internalType": "address",
          "name": "account",
          "type": "address"
        }
      ],
      "name": "balanceOf",
      "outputs": [
        {
          "internalType": "uint256",
          "name": "",
          "type": "uint256"
        }
      ],
      "stateMutability": "view",
      "type": "function"
    },
    {
      "inputs": [],
      "name": "decimals",
      "outputs": [
        {
          "internalType": "uint8",
          "name": "",
          "type": "uint8"
        }
      ],
      "stateMutability": "view",
      "type": "function"
    },
    {
      "inputs": [
        {
          "internalType": "address",
          "name": "spender",
          "type": "address"
        },
        {
          "internalType": "uint256",
          "name": "subtractedValue",
          "type": "uint256"
        }
      ],
      "name": "decreaseAllowance",
      "outputs": [
        {
          "internalType": "bool",
          "name": "",
          "type": "bool"
        }
      ],
      "stateMutability": "nonpayable",
      "type": "function"
    },
    {
      "inputs": [
        {
          "internalType": "address",
          "name": "spender",
          "type": "address"
        },
        {
          "internalType": "uint256",
          "name": "addedValue",
          "type": "uint256"
        }
      ],
      "name": "increaseAllowance",
      "outputs": [
        {
          "internalType": "bool",
          "name": "",
          "type": "bool"
        }
      ],
      "stateMutability": "nonpayable",
      "type": "function"
    },
    {
      "inputs": [
        {
          "internalType": "uint256",
          "name": "amount",
          "type": "uint256"
        },
        {
          "internalType": "address",
          "name": "reciever",
          "type": "address"
        }
      ],
      "name": "mint",
      "outputs": [],
      "stateMutability": "nonpayable",
      "type": "function"
    },
    {
      "inputs": [],
      "name": "name",
      "outputs": [
        {
          "internalType": "string",
          "name": "",
          "type": "string"
        }
      ],
      "stateMutability": "view",
      "type": "function"
    },
    {
      "inputs": [],
      "name": "owner",
      "outputs": [
        {
          "internalType": "address",
          "name": "",
          "type": "address"
        }
      ],
      "stateMutability": "view",
      "type": "function"
    },
    {
      "inputs": [],
      "name": "renounceOwnership",
      "outputs": [],
      "stateMutability": "nonpayable",
      "type": "function"
    },
    {
      "inputs": [],
      "name": "symbol",
      "outputs": [
        {
          "internalType": "string",
          "name": "",
          "type": "string"
        }
      ],
      "stateMutability": "view",
      "type": "function"
    },
    {
      "inputs": [],
      "name": "totalSupply",
      "outputs": [
        {
          "internalType": "uint256",
          "name": "",
          "type": "uint256"
        }
      ],
      "stateMutability": "view",
      "type": "function"
    },
    {
      "inputs": [
        {
          "internalType": "address",
          "name": "to",
          "type": "address"
        },
        {
          "internalType": "uint256",
          "name": "amount",
          "type": "uint256"
        }
      ],
      "name": "transfer",
      "outputs": [
        {
          "internalType": "bool",
          "name": "",
          "type": "bool"
        }
      ],
      "stateMutability": "nonpayable",
      "type": "function"
    },
    {
      "inputs": [
        {
          "internalType": "address",
          "name": "from",
          "type": "address"
        },
        {
          "internalType": "address",
          "name": "to",
          "type": "address"
        },
        {
          "internalType": "uint256",
          "name": "amount",
          "type": "uint256"
        }
      ],
      "name": "transferFrom",
      "outputs": [
        {
          "internalType": "bool",
          "name": "",
          "type": "bool"
        }
      ],
      "stateMutability": "nonpayable",
      "type": "function"
    },
    {
      "inputs": [
        {
          "internalType": "address",
          "name": "newOwner",
          "type": "address"
        }
      ],
      "name": "transferOwnership",
      "outputs": [],
      "stateMutability": "nonpayable",
      "type": "function"
    }
  ],
  "bytecode": "0x60806040523480156200001157600080fd5b506040518060400160405280600781526020017f64657655534443000000000000000000000000000000000000000000000000008152506040518060400160405280600581526020017f4455534443000000000000000000000000000000000000000000000000000000815250816003908051906020019062000096929190620001a6565b508060049080519060200190620000af929190620001a6565b505050620000d2620000c6620000d860201b60201c565b620000e060201b60201c565b620002bb565b600033905090565b6000600560009054906101000a900473ffffffffffffffffffffffffffffffffffffffff16905081600560006101000a81548173ffffffffffffffffffffffffffffffffffffffff021916908373ffffffffffffffffffffffffffffffffffffffff1602179055508173ffffffffffffffffffffffffffffffffffffffff168173ffffffffffffffffffffffffffffffffffffffff167f8be0079c531659141344cd1fd0a4f28419497f9722a3daafe3b4186f6b6457e060405160405180910390a35050565b828054620001b49062000285565b90600052602060002090601f016020900481019282620001d8576000855562000224565b82601f10620001f357805160ff191683800117855562000224565b8280016001018555821562000224579182015b828111156200022357825182559160200191906001019062000206565b5b50905062000233919062000237565b5090565b5b808211156200025257600081600090555060010162000238565b5090565b7f4e487b7100000000000000000000000000000000000000000000000000000000600052602260045260246000fd5b600060028204905060018216806200029e57607f821691505b60208210811415620002b557620002b462000256565b5b50919050565b61196980620002cb6000396000f3fe608060405234801561001057600080fd5b50600436106101005760003560e01c80638da5cb5b11610097578063a457c2d711610066578063a457c2d71461029d578063a9059cbb146102cd578063dd62ed3e146102fd578063f2fde38b1461032d57610100565b80638da5cb5b1461022957806394bf804d1461024757806395d89b4114610263578063983b2d561461028157610100565b8063313ce567116100d3578063313ce567146101a157806339509351146101bf57806370a08231146101ef578063715018a61461021f57610100565b806306fdde0314610105578063095ea7b31461012357806318160ddd1461015357806323b872dd14610171575b600080fd5b61010d610349565b60405161011a919061104f565b60405180910390f35b61013d6004803603810190610138919061110a565b6103db565b60405161014a9190611165565b60405180910390f35b61015b6103fe565b604051610168919061118f565b60405180910390f35b61018b600480360381019061018691906111aa565b610408565b6040516101989190611165565b60405180910390f35b6101a9610437565b6040516101b69190611219565b60405180910390f35b6101d960048036038101906101d4919061110a565b610440565b6040516101e69190611165565b60405180910390f35b61020960048036038101906102049190611234565b610477565b604051610216919061118f565b60405180910390f35b6102276104bf565b005b6102316104d3565b60405161023e9190611270565b60405180910390f35b610261600480360381019061025c919061128b565b6104fd565b005b61026b61058e565b604051610278919061104f565b60405180910390f35b61029b60048036038101906102969190611234565b610620565b005b6102b760048036038101906102b2919061110a565b610683565b6040516102c49190611165565b60405180910390f35b6102e760048036038101906102e2919061110a565b6106fa565b6040516102f49190611165565b60405180910390f35b610317600480360381019061031291906112cb565b61071d565b604051610324919061118f565b60405180910390f35b61034760048036038101906103429190611234565b6107a4565b005b6060600380546103589061133a565b80601f01602080910402602001604051908101604052809291908181526020018280546103849061133a565b80156103d15780601f106103a6576101008083540402835291602001916103d1565b820191906000526020600020905b8154815290600101906020018083116103b457829003601f168201915b5050505050905090565b6000806103e6610828565b90506103f3818585610830565b600191505092915050565b6000600254905090565b600080610413610828565b90506104208582856109fb565b61042b858585610a87565b60019150509392505050565b6000601a905090565b60008061044b610828565b905061046c81858561045d858961071d565b610467919061139b565b610830565b600191505092915050565b60008060008373ffffffffffffffffffffffffffffffffffffffff1673ffffffffffffffffffffffffffffffffffffffff168152602001908152602001600020549050919050565b6104c7610d08565b6104d16000610d86565b565b6000600560009054906101000a900473ffffffffffffffffffffffffffffffffffffffff16905090565b600660003373ffffffffffffffffffffffffffffffffffffffff1673ffffffffffffffffffffffffffffffffffffffff16815260200190815260200160002060009054906101000a900460ff16610580576040517f8b3526b200000000000000000000000000000000000000000000000000000000815260040160405180910390fd5b61058a8183610e4c565b5050565b60606004805461059d9061133a565b80601f01602080910402602001604051908101604052809291908181526020018280546105c99061133a565b80156106165780601f106105eb57610100808354040283529160200191610616565b820191906000526020600020905b8154815290600101906020018083116105f957829003601f168201915b5050505050905090565b610628610d08565b6001600660008373ffffffffffffffffffffffffffffffffffffffff1673ffffffffffffffffffffffffffffffffffffffff16815260200190815260200160002060006101000a81548160ff02191690831515021790555050565b60008061068e610828565b9050600061069c828661071d565b9050838110156106e1576040517f08c379a00000000000000000000000000000000000000000000000000000000081526004016106d890611463565b60405180910390fd5b6106ee8286868403610830565b60019250505092915050565b600080610705610828565b9050610712818585610a87565b600191505092915050565b6000600160008473ffffffffffffffffffffffffffffffffffffffff1673ffffffffffffffffffffffffffffffffffffffff16815260200190815260200160002060008373ffffffffffffffffffffffffffffffffffffffff1673ffffffffffffffffffffffffffffffffffffffff16815260200190815260200160002054905092915050565b6107ac610d08565b600073ffffffffffffffffffffffffffffffffffffffff168173ffffffffffffffffffffffffffffffffffffffff16141561081c576040517f08c379a0000000000000000000000000000000000000000000000000000000008152600401610813906114f5565b60405180910390fd5b61082581610d86565b50565b600033905090565b600073ffffffffffffffffffffffffffffffffffffffff168373ffffffffffffffffffffffffffffffffffffffff1614156108a0576040517f08c379a000000000000000000000000000000000000000000000000000000000815260040161089790611587565b60405180910390fd5b600073ffffffffffffffffffffffffffffffffffffffff168273ffffffffffffffffffffffffffffffffffffffff161415610910576040517f08c379a000000000000000000000000000000000000000000000000000000000815260040161090790611619565b60405180910390fd5b80600160008573ffffffffffffffffffffffffffffffffffffffff1673ffffffffffffffffffffffffffffffffffffffff16815260200190815260200160002060008473ffffffffffffffffffffffffffffffffffffffff1673ffffffffffffffffffffffffffffffffffffffff168152602001908152602001600020819055508173ffffffffffffffffffffffffffffffffffffffff168373ffffffffffffffffffffffffffffffffffffffff167f8c5be1e5ebec7d5bd14f71427d1e84f3dd0314c0f7b2291e5b200ac8c7c3b925836040516109ee919061118f565b60405180910390a3505050565b6000610a07848461071d565b90507fffffffffffffffffffffffffffffffffffffffffffffffffffffffffffffffff8114610a815781811015610a73576040517f08c379a0000000000000000000000000000000000000000000000000000000008152600401610a6a90611685565b60405180910390fd5b610a808484848403610830565b5b50505050565b600073ffffffffffffffffffffffffffffffffffffffff168373ffffffffffffffffffffffffffffffffffffffff161415610af7576040517f08c379a0000000000000000000000000000000000000000000000000000000008152600401610aee90611717565b60405180910390fd5b600073ffffffffffffffffffffffffffffffffffffffff168273ffffffffffffffffffffffffffffffffffffffff161415610b67576040517f08c379a0000000000000000000000000000000000000000000000000000000008152600401610b5e906117a9565b60405180910390fd5b610b72838383610fac565b60008060008573ffffffffffffffffffffffffffffffffffffffff1673ffffffffffffffffffffffffffffffffffffffff16815260200190815260200160002054905081811015610bf8576040517f08c379a0000000000000000000000000000000000000000000000000000000008152600401610bef9061183b565b60405180910390fd5b8181036000808673ffffffffffffffffffffffffffffffffffffffff1673ffffffffffffffffffffffffffffffffffffffff16815260200190815260200160002081905550816000808573ffffffffffffffffffffffffffffffffffffffff1673ffffffffffffffffffffffffffffffffffffffff1681526020019081526020016000206000828254610c8b919061139b565b925050819055508273ffffffffffffffffffffffffffffffffffffffff168473ffffffffffffffffffffffffffffffffffffffff167fddf252ad1be2c89b69c2b068fc378daa952ba7f163c4a11628f55a4df523b3ef84604051610cef919061118f565b60405180910390a3610d02848484610fb1565b50505050565b610d10610828565b73ffffffffffffffffffffffffffffffffffffffff16610d2e6104d3565b73ffffffffffffffffffffffffffffffffffffffff1614610d84576040517f08c379a0000000000000000000000000000000000000000000000000000000008152600401610d7b906118a7565b60405180910390fd5b565b6000600560009054906101000a900473ffffffffffffffffffffffffffffffffffffffff16905081600560006101000a81548173ffffffffffffffffffffffffffffffffffffffff021916908373ffffffffffffffffffffffffffffffffffffffff1602179055508173ffffffffffffffffffffffffffffffffffffffff168173ffffffffffffffffffffffffffffffffffffffff167f8be0079c531659141344cd1fd0a4f28419497f9722a3daafe3b4186f6b6457e060405160405180910390a35050565b600073ffffffffffffffffffffffffffffffffffffffff168273ffffffffffffffffffffffffffffffffffffffff161415610ebc576040517f08c379a0000000000000000000000000000000000000000000000000000000008152600401610eb390611913565b60405180910390fd5b610ec860008383610fac565b8060026000828254610eda919061139b565b92505081905550806000808473ffffffffffffffffffffffffffffffffffffffff1673ffffffffffffffffffffffffffffffffffffffff1681526020019081526020016000206000828254610f2f919061139b565b925050819055508173ffffffffffffffffffffffffffffffffffffffff16600073ffffffffffffffffffffffffffffffffffffffff167fddf252ad1be2c89b69c2b068fc378daa952ba7f163c4a11628f55a4df523b3ef83604051610f94919061118f565b60405180910390a3610fa860008383610fb1565b5050565b505050565b505050565b600081519050919050565b600082825260208201905092915050565b60005b83811015610ff0578082015181840152602081019050610fd5565b83811115610fff576000848401525b50505050565b6000601f19601f8301169050919050565b600061102182610fb6565b61102b8185610fc1565b935061103b818560208601610fd2565b61104481611005565b840191505092915050565b600060208201905081810360008301526110698184611016565b905092915050565b600080fd5b600073ffffffffffffffffffffffffffffffffffffffff82169050919050565b60006110a182611076565b9050919050565b6110b181611096565b81146110bc57600080fd5b50565b6000813590506110ce816110a8565b92915050565b6000819050919050565b6110e7816110d4565b81146110f257600080fd5b50565b600081359050611104816110de565b92915050565b6000806040838503121561112157611120611071565b5b600061112f858286016110bf565b9250506020611140858286016110f5565b9150509250929050565b60008115159050919050565b61115f8161114a565b82525050565b600060208201905061117a6000830184611156565b92915050565b611189816110d4565b82525050565b60006020820190506111a46000830184611180565b92915050565b6000806000606084860312156111c3576111c2611071565b5b60006111d1868287016110bf565b93505060206111e2868287016110bf565b92505060406111f3868287016110f5565b9150509250925092565b600060ff82169050919050565b611213816111fd565b82525050565b600060208201905061122e600083018461120a565b92915050565b60006020828403121561124a57611249611071565b5b6000611258848285016110bf565b91505092915050565b61126a81611096565b82525050565b60006020820190506112856000830184611261565b92915050565b600080604083850312156112a2576112a1611071565b5b60006112b0858286016110f5565b92505060206112c1858286016110bf565b9150509250929050565b600080604083850312156112e2576112e1611071565b5b60006112f0858286016110bf565b9250506020611301858286016110bf565b9150509250929050565b7f4e487b7100000000000000000000000000000000000000000000000000000000600052602260045260246000fd5b6000600282049050600182168061135257607f821691505b602082108114156113665761136561130b565b5b50919050565b7f4e487b7100000000000000000000000000000000000000000000000000000000600052601160045260246000fd5b60006113a6826110d4565b91506113b1836110d4565b9250827fffffffffffffffffffffffffffffffffffffffffffffffffffffffffffffffff038211156113e6576113e561136c565b5b828201905092915050565b7f45524332303a2064656372656173656420616c6c6f77616e63652062656c6f7760008201527f207a65726f000000000000000000000000000000000000000000000000000000602082015250565b600061144d602583610fc1565b9150611458826113f1565b604082019050919050565b6000602082019050818103600083015261147c81611440565b9050919050565b7f4f776e61626c653a206e6577206f776e657220697320746865207a65726f206160008201527f6464726573730000000000000000000000000000000000000000000000000000602082015250565b60006114df602683610fc1565b91506114ea82611483565b604082019050919050565b6000602082019050818103600083015261150e816114d2565b9050919050565b7f45524332303a20617070726f76652066726f6d20746865207a65726f2061646460008201527f7265737300000000000000000000000000000000000000000000000000000000602082015250565b6000611571602483610fc1565b915061157c82611515565b604082019050919050565b600060208201905081810360008301526115a081611564565b9050919050565b7f45524332303a20617070726f766520746f20746865207a65726f20616464726560008201527f7373000000000000000000000000000000000000000000000000000000000000602082015250565b6000611603602283610fc1565b915061160e826115a7565b604082019050919050565b60006020820190508181036000830152611632816115f6565b9050919050565b7f45524332303a20696e73756666696369656e7420616c6c6f77616e6365000000600082015250565b600061166f601d83610fc1565b915061167a82611639565b602082019050919050565b6000602082019050818103600083015261169e81611662565b9050919050565b7f45524332303a207472616e736665722066726f6d20746865207a65726f20616460008201527f6472657373000000000000000000000000000000000000000000000000000000602082015250565b6000611701602583610fc1565b915061170c826116a5565b604082019050919050565b60006020820190508181036000830152611730816116f4565b9050919050565b7f45524332303a207472616e7366657220746f20746865207a65726f206164647260008201527f6573730000000000000000000000000000000000000000000000000000000000602082015250565b6000611793602383610fc1565b915061179e82611737565b604082019050919050565b600060208201905081810360008301526117c281611786565b9050919050565b7f45524332303a207472616e7366657220616d6f756e742065786365656473206260008201527f616c616e63650000000000000000000000000000000000000000000000000000602082015250565b6000611825602683610fc1565b9150611830826117c9565b604082019050919050565b6000602082019050818103600083015261185481611818565b9050919050565b7f4f776e61626c653a2063616c6c6572206973206e6f7420746865206f776e6572600082015250565b6000611891602083610fc1565b915061189c8261185b565b602082019050919050565b600060208201905081810360008301526118c081611884565b9050919050565b7f45524332303a206d696e7420746f20746865207a65726f206164647265737300600082015250565b60006118fd601f83610fc1565b9150611908826118c7565b602082019050919050565b6000602082019050818103600083015261192c816118f0565b905091905056fea264697066735822122086a6dda2e99fcc64affa3921fb5bb30a6fe024891e520998e521e3d4567fae7464736f6c63430008090033",
  "linkReferences": {},
  "deployedLinkReferences": {}
}